:100F7B006030000E000001060126014A015D018868
:100F8B0001B801EE0000020B0242029302BA0310F9
:100F9B00037003DC00000416049705260575062074
:100FAB0006E007B84C003E00000518028C01460015
:100FBB00A200514E000000000C800640032001905F
:040FCB0000C80064F6
:03101400020800CF
:10080000900028E0FEA3E0900008120EFD90002466
:10081000E0FEA3E0FF900008120EFE900022E0FE32
:10082000A3E0FF900008120EFE900020E0FEA3E07F
:10083000FF90000AE0FCA3E0FD900005E02DFD9094
:100840000004E03CFC120F03900022E0FEA3E0FF56
:10085000900008120EFE90001CE0FEA3E0FF900046
:1008600008120EFE90001AE0FEA3E0FF90000812AE
:100870000EFE900018E0FEA3E0FF90000AE0FCA34B
:10088000E0FD900005E02DFD900004E03CFC120F1F
:100890000390002CE0FEA3E0FF900008120EFE90F3
:1008A000002AE0FEA3E0FF900008120EFE90002C4C
:1008B000E0FEA3E0FF900008120EFE900028E0FE8C
:1008C000A3E0FF90000CE0FCA3E0FD900009E02D08
:1008D000FD900008E03CFC120F03120EF39000267E
:1008E000E0FEA3E0FF900008120EFE900024E0FE60
:1008F000A3E0FF900008120EFE900022120EF69068
:100900000024120EF6900026120EF6900024120E0D
:10091000F6900028E0FEA3E0FF90000CE0FCA3E0CE
:10092000FD900009E02DFD900008E03CFC120F0353
:10093000900024120EF6900022120EF6900024125F
:100940000EF6900028120EF6900022120EF690007D
:1009500024120EF6900026120EF6900024120EF6C7
:10096000900022120EF6900020E0FEA3E0FF90001F
:100970000CE0FCA3E0FD900009E02DFD900008E0F4
:100980003CFC120F03900028E0FEA3E0FF9000085B
:10099000120EFE90001CE0FEA3E0FF900008120E75
:1009A000FE900022E0FEA3E0FF900008120EFE90F1
:1009B000001AE0FEA3E0FF900008120EFE90002057
:1009C000E0FEA3E0FF900008120EFE900018E0FE8B
:1009D000A3E0FF90000CE0FCA3E0FD900007E02DF9
:1009E000FD900006E03CFC120F03120EF390002075
:1009F000120EF6900018E0FEA3E0FF900002120E27
:100A0000FE900014E0FEA3E0FF900006120EFE90A0
:100A10000018E0FEA3E0FF90000AE0FCA3E0FD90D8
:100A20000009E02DFD900008E03CFC120F03120EBF
:100A3000F3900020E0FEA3E0FF90000AE0FCA3E0BA
:100A4000FD900009E02DFD900008E03CFC120F0332
:100A5000900022120EF6120EF3900020120EF69065
:100A60000018E0FEA3E0FF900008120EFE900028A0
:100A7000E0FEA3E0FF900008E0FCA3E025E0FDEC31
:100A800033FC120F03900030E0FEA3E0FF9000085B
:100A9000120EFE90002A120EF6900028120EF6900A
:100AA0000024120EF6900028120EF6900022E0FEAE
:100AB000A3E0FF900004120EFE900022E0FEA3E0EF
:100AC000FF900008120EFE900022120EF6900024F5
:100AD000120EF690001CE0FEA3E0FF900008120E3C
:100AE000FE90001AE0FEA3E0FF900008120EFE90B8
:100AF0000018E0FEA3E0FF90000AE0FCA3E0FD90F8
:100B00000009E02DFD900008E03CFC120F03120EDE
:100B1000F3900020E0FEA3E0FF900008120EFE908C
:100B20000022E0FEA3E0FF900008120EFE900014E9
:100B3000E0FEA3E0FF900008120EFE900020E0FE11
:100B4000A3E0FF900008120EFE120EF390001812A0
:100B50000EF6120EF3900020120EF6900018E0FE32
:100B6000A3E0FF900004120EFE900024E0FEA3E03C
:100B7000FF90000AE0FCA3E0FD900009E02DFD904D
:100B80000008E03CFC120F03900028120EF69000C3
:100B90001CE0FEA3E0FF900008120EFE900022E091
:100BA000FEA3E0FF900008120EFE120EF39000204C
:100BB000120EF6900018E0FEA3E0FF900008120E5F
:100BC000FE90000EE0FEA3E0FF900006120EFE90E5
:100BD0000014120EF6900018120EF6900014E0FEAB
:100BE000A3E0FF900008120EFE900018120EF612FD
:100BF0000EF390001C120EF6900022120EF69000DA
:100C00001AE0FEA3E0FF900008E0FCA3E0FD9000E6
:100C100007E02DFD900006E03CFC120F0390001849
:100C2000120EF6120EF3900020E0FEA3E0FF9000FB
:100C300008120EFE900022120EF6900028E0FEA38D
:100C4000E0FF900008120EFE900024E0FEA3E0FFFB
:100C5000900008120EFE900022E0FEA3E0FF90003C
:100C600008120EFE900024120EF6900022120EF6CC
:100C7000900020E0FEA3E0FF900008120EFE120E8E
:100C8000F3900018120EF6900014E0FEA3E0FF901F
:100C90000006120EFE900020E0FEA3E0FF9000068A
:100CA000120EFE120EF3900020120EF6120EF390AA
:100CB0000018120EF6900014120EF6900018120E84
:100CC000F6120EF3900020120EF6900018E0FEA32C
:100CD000E0FF900008E0FCA3E0FD900007E02DFDA0
:100CE000900006E03CFC120F03900024120EF690D8
:100CF0000028120EF6900022120EF6900024120E1A
:100D0000F6900022120EF6900020120EF690001CB3
:100D1000E0FEA3E0FF900008120EFE90001AE0FE35
:100D2000A3E0FF900008120EFE900002E0FCA3E09A
:080D3000FD7FC47E00020F03E9
:100EF30090001AE0FEA3E090000AFFE0FCA3E0FDEF
:080F030090004AEEF0A3EFF0AC
:100F0B00AE04AF05E4FCFD7B64FAF9F8120D4A90D0
:100F1B00004CEEF0A3EFF090004AE0FEA3E0FF7C64
:100F2B00007D0C120D38AB07AA06E4F9F87FC07EE2
:100F3B00D47D01120FD0E4FDFCD390004DE0940062
:100F4B0090004CE094004025D3ED9FEC9E4007C2EF
:100F5B0081E4FCFD80070DBD00010CD28190004D9A
:0F0F6B00E024FFF090004CE034FFF080CCD28106
:010F7A002254
:03000000020E6786
:0C0E6700787FE4F6D8FD758107020EAE1E
:100E7300021014E493A3F8E493A34003F68001F271
:100E830008DFF48029E493A3F85407240CC8C33380
:100E9300C4540F4420C8834004F456800146F6DF4F
:100EA300E4800B0102040810204080900F7BE47E55
:100EB300019360BCA3FF543F30E509541FFEE49344
:100EC300A360010ECF54C025E060A840B8E493A30B
:100ED300FAE493A3F8E493A3C8C582C8CAC583CA36
:100EE300F0A3C8C582C8CAC583CADFE9DEE780BEEE
:010FCF000021
:100D3800EF8DF0A4A8F0CF8CF0A428CE8DF0A42ECF
:020D4800FE2289
:100D4A00E88FF0A4CC8BF0A42CFCE98EF0A42CFC48
:100D5A008AF0EDA42CFCEA8EF0A4CDA8F08BF0A4C6
:100D6A002DCC3825F0FDE98FF0A42CCD35F0FCEB25
:100D7A008EF0A4FEA9F0EB8FF0A4CFC5F02ECD39EA
:0F0D8A00FEE43CFCEAA42DCE35F0FDE43CFC2257
:100FD000C2D5E830E70FB2D5E4C39BFBE49AFAE44C
:100FE00099F9E498F8EC30E717B2D5121006120D13
:100FF000D5E4C39BFBE49AFAE499F9E498F88003FA
:10100000120DD530D50DE4C39FFFE49EFEE49DFD97
:04101000E49CFC223E
:100D990075F008758200EF2FFFEE33FECD33CDCC11
:100DA90033CCC58233C5829BED9AEC99E582984094
:100DB9000CF582EE9BFEED9AFDEC99FC0FD5F0D671
:100DC900E4CEFBE4CDFAE4CCF9A88222B800C1B99B
:100DD9000059BA002DEC8BF084CFCECDFCE5F0CBD9
:100DE900F97818EF2FFFEE33FEED33FDEC33FCEB12
:100DF90033FB10D703994004EB99FB0FD8E5E4F9CD
:100E0900FA227818EF2FFFEE33FEED33FDEC33FCB9
:100E1900C933C910D7059BE99A4007EC9BFCE99AAD
:100E2900F90FD8E0E4C9FAE4CCFB2275F010EF2FF2
:100E3900FFEE33FEED33FDCC33CCC833C810D707F2
:100E49009BEC9AE899400AED9BFDEC9AFCE899F82D
:0E0E59000FD5F0DAE4CDFBE4CCFAE4C8F922C0
:00000001FF
