BL51 BANKED LINKER/LOCATER V6.22                                                        05/24/2025  21:35:41  PAGE 1


BL51 BANKED LINKER/LOCATER V6.22, INVOKED BY:
D:\KEIL_V5\C51\BIN\BL51.EXE butterfly.obj, STARTUP.obj TO butterfly PRINT (.\Listings\butterfly.m51) RAMSIZE (256)


MEMORY MODEL: LARGE


INPUT MODULES INCLUDED:
  butterfly.obj (BUTTERFLY)
  STARTUP.obj (?C_STARTUP)
  D:\KEIL_V5\C51\LIB\C51L.LIB (?C_INIT)
  D:\KEIL_V5\C51\LIB\C51L.LIB (?C?IMUL)
  D:\KEIL_V5\C51\LIB\C51L.LIB (?C?LMUL)
  D:\KEIL_V5\C51\LIB\C51L.LIB (?C?SLDIV)
  D:\KEIL_V5\C51\LIB\C51L.LIB (?C?ULDIV)


LINK MAP OF MODULE:  butterfly (BUTTERFLY)


            TYPE    BASE      LENGTH    RELOCATION   SEGMENT NAME
            -----------------------------------------------------

            * * * * * * *   D A T A   M E M O R Y   * * * * * * *
            REG     0000H     0008H     ABSOLUTE     "REG BANK 0"
            IDATA   0008H     0001H     UNIT         ?STACK

            * * * * * * *  X D A T A   M E M O R Y  * * * * * * *
            XDATA   0000H     004AH     UNIT         ?XD?BUTTERFLY
            XDATA   004AH     0004H     UNIT         _XDATA_GROUP_

            * * * * * * *   C O D E   M E M O R Y   * * * * * * *
            CODE    0000H     0003H     ABSOLUTE     
                    0003H     07FDH                  *** GAP ***
            CODE    0800H     0538H     UNIT         ?PR?PLAY?BUTTERFLY
            CODE    0D38H     012FH     UNIT         ?C?LIB_CODE
            CODE    0E67H     008CH     UNIT         ?C_C51STARTUP
            CODE    0EF3H     0088H     UNIT         ?PR?_BUZZER?BUTTERFLY
            CODE    0F7BH     0055H     UNIT         ?C_INITSEG
            CODE    0FD0H     0044H     UNIT         ?C?LDIV
            CODE    1014H     0003H     UNIT         ?PR?MAIN?BUTTERFLY



OVERLAY MAP OF MODULE:   butterfly (BUTTERFLY)


SEGMENT                          XDATA_GROUP
  +--> CALLED SEGMENT          START    LENGTH
----------------------------------------------
?C_C51STARTUP                  -----    -----
  +--> ?PR?MAIN?BUTTERFLY
  +--> ?C_INITSEG

?PR?MAIN?BUTTERFLY             -----    -----
  +--> ?PR?PLAY?BUTTERFLY

?PR?PLAY?BUTTERFLY             -----    -----
BL51 BANKED LINKER/LOCATER V6.22                                                      05/24/2025  21:35:41  PAGE 2


  +--> ?PR?_BUZZER?BUTTERFLY

?PR?_BUZZER?BUTTERFLY          004AH    0004H



SYMBOL TABLE OF MODULE:  butterfly (BUTTERFLY)

  VALUE           TYPE          NAME
  ----------------------------------

  -------         MODULE        BUTTERFLY
  C:0000H         SYMBOL        _ICE_DUMMY_
  D:0080H         PUBLIC        P0
  D:0090H         PUBLIC        P1
  D:00B0H         PUBLIC        P3
  D:00A8H         PUBLIC        IE
  D:00B8H         PUBLIC        IP
  C:0F03H         PUBLIC        _buzzer
  C:1014H         PUBLIC        main
  X:0000H         PUBLIC        bpm75
  D:0098H         PUBLIC        SCON
  D:0088H         PUBLIC        TCON
  C:0800H         PUBLIC        play
  X:000EH         PUBLIC        note
  B:0080H.1       PUBLIC        p23
  X:003EH         PUBLIC        bpm184
  D:00C8H         PUBLIC        T2CON
  D:00D0H         PUBLIC        PSW
  -------         PROC          MAIN
  C:1014H         LINE#         35
  C:1014H         LINE#         36
  C:1014H         LINE#         37
  -------         ENDPROC       MAIN
  -------         PROC          PLAY
  C:0800H         LINE#         40
  C:0800H         LINE#         41
  C:0800H         LINE#         43
  C:080DH         LINE#         44
  C:081BH         LINE#         45
  C:0829H         LINE#         47
  C:0848H         LINE#         48
  C:0856H         LINE#         49
  C:0864H         LINE#         50
  C:0872H         LINE#         52
  C:0891H         LINE#         53
  C:089FH         LINE#         54
  C:08ADH         LINE#         55
  C:08BBH         LINE#         57
  C:08DAH         LINE#         58
  C:08DDH         LINE#         59
  C:08EBH         LINE#         60
  C:08F9H         LINE#         61
  C:08FFH         LINE#         62
  C:0905H         LINE#         63
  C:090BH         LINE#         64
  C:0911H         LINE#         65
BL51 BANKED LINKER/LOCATER V6.22                                                      05/24/2025  21:35:41  PAGE 3


  C:0930H         LINE#         66
  C:0936H         LINE#         68
  C:093CH         LINE#         69
  C:0942H         LINE#         70
  C:0948H         LINE#         71
  C:094EH         LINE#         72
  C:0954H         LINE#         73
  C:095AH         LINE#         74
  C:0960H         LINE#         75
  C:0966H         LINE#         76
  C:0985H         LINE#         77
  C:0993H         LINE#         79
  C:09A1H         LINE#         80
  C:09AFH         LINE#         81
  C:09BDH         LINE#         82
  C:09CBH         LINE#         83
  C:09EAH         LINE#         84
  C:09EDH         LINE#         85
  C:09F3H         LINE#         87
  C:0A01H         LINE#         89
  C:0A0FH         LINE#         90
  C:0A2EH         LINE#         91
  C:0A31H         LINE#         92
  C:0A50H         LINE#         93
  C:0A56H         LINE#         94
  C:0A59H         LINE#         95
  C:0A5FH         LINE#         96
  C:0A6DH         LINE#         98
  C:0A85H         LINE#         99
  C:0A93H         LINE#         100
  C:0A99H         LINE#         101
  C:0A9FH         LINE#         102
  C:0AA5H         LINE#         103
  C:0AABH         LINE#         104
  C:0AB9H         LINE#         106
  C:0AC7H         LINE#         107
  C:0ACDH         LINE#         108
  C:0AD3H         LINE#         109
  C:0AE1H         LINE#         110
  C:0AEFH         LINE#         111
  C:0B0EH         LINE#         112
  C:0B11H         LINE#         113
  C:0B1FH         LINE#         114
  C:0B2DH         LINE#         116
  C:0B3BH         LINE#         117
  C:0B49H         LINE#         118
  C:0B4CH         LINE#         119
  C:0B52H         LINE#         120
  C:0B55H         LINE#         121
  C:0B5BH         LINE#         122
  C:0B69H         LINE#         124
  C:0B88H         LINE#         125
  C:0B8EH         LINE#         126
  C:0B9CH         LINE#         127
  C:0BAAH         LINE#         128
  C:0BADH         LINE#         129
  C:0BB3H         LINE#         130
BL51 BANKED LINKER/LOCATER V6.22                                                      05/24/2025  21:35:41  PAGE 4


  C:0BC1H         LINE#         131
  C:0BCFH         LINE#         133
  C:0BD5H         LINE#         134
  C:0BDBH         LINE#         135
  C:0BE9H         LINE#         136
  C:0BEFH         LINE#         137
  C:0BF2H         LINE#         138
  C:0BF8H         LINE#         139
  C:0BFEH         LINE#         140
  C:0C1DH         LINE#         141
  C:0C23H         LINE#         142
  C:0C26H         LINE#         145
  C:0C34H         LINE#         146
  C:0C3AH         LINE#         147
  C:0C48H         LINE#         148
  C:0C56H         LINE#         149
  C:0C64H         LINE#         150
  C:0C6AH         LINE#         151
  C:0C70H         LINE#         152
  C:0C7EH         LINE#         153
  C:0C81H         LINE#         154
  C:0C87H         LINE#         156
  C:0C95H         LINE#         157
  C:0CA3H         LINE#         158
  C:0CA6H         LINE#         159
  C:0CACH         LINE#         160
  C:0CAFH         LINE#         161
  C:0CB5H         LINE#         162
  C:0CBBH         LINE#         163
  C:0CC1H         LINE#         164
  C:0CC4H         LINE#         165
  C:0CCAH         LINE#         167
  C:0CE9H         LINE#         168
  C:0CEFH         LINE#         169
  C:0CF5H         LINE#         170
  C:0CFBH         LINE#         171
  C:0D01H         LINE#         172
  C:0D07H         LINE#         173
  C:0D0DH         LINE#         174
  C:0D1BH         LINE#         175
  C:0D29H         LINE#         177
  -------         ENDPROC       PLAY
  C:0EF3H         SYMBOL        L?0011
  C:0EF6H         SYMBOL        L?0012
  C:0EFDH         SYMBOL        L?0013
  C:0EFEH         SYMBOL        L?0014
  -------         PROC          L?0010
  -------         ENDPROC       L?0010
  C:0EF3H         SYMBOL        L?0011
  C:0EF6H         SYMBOL        L?0012
  C:0EFDH         SYMBOL        L?0013
  C:0EFEH         SYMBOL        L?0014
  -------         PROC          _BUZZER
  X:004AH         SYMBOL        f
  D:0004H         SYMBOL        time_ms
  -------         DO            
  X:004CH         SYMBOL        time
BL51 BANKED LINKER/LOCATER V6.22                                                      05/24/2025  21:35:41  PAGE 5


  D:0006H         SYMBOL        C
  D:0004H         SYMBOL        x
  -------         ENDDO         
  C:0F03H         LINE#         180
  C:0F0BH         LINE#         181
  C:0F0BH         LINE#         182
  C:0F22H         LINE#         183
  C:0F41H         LINE#         184
  C:0F44H         LINE#         185
  C:0F53H         LINE#         186
  C:0F53H         LINE#         187
  C:0F5AH         LINE#         188
  C:0F5CH         LINE#         189
  C:0F5FH         LINE#         190
  C:0F61H         LINE#         192
  C:0F61H         LINE#         193
  C:0F66H         LINE#         194
  C:0F68H         LINE#         195
  C:0F68H         LINE#         196
  C:0F78H         LINE#         197
  C:0F7AH         LINE#         198
  -------         ENDPROC       _BUZZER
  -------         ENDMOD        BUTTERFLY

  -------         MODULE        ?C_STARTUP
  C:0E67H         SEGMENT       ?C_C51STARTUP
  I:0008H         SEGMENT       ?STACK
  C:0000H         PUBLIC        ?C_STARTUP
  D:00E0H         SYMBOL        ACC
  D:00F0H         SYMBOL        B
  D:0083H         SYMBOL        DPH
  D:0082H         SYMBOL        DPL
  N:0000H         SYMBOL        IBPSTACK
  N:0100H         SYMBOL        IBPSTACKTOP
  N:0080H         SYMBOL        IDATALEN
  C:0E6AH         SYMBOL        IDATALOOP
  N:0000H         SYMBOL        PBPSTACK
  N:0100H         SYMBOL        PBPSTACKTOP
  N:0000H         SYMBOL        PDATALEN
  N:0000H         SYMBOL        PDATASTART
  N:0000H         SYMBOL        PPAGE
  N:0000H         SYMBOL        PPAGEENABLE
  D:00A0H         SYMBOL        PPAGE_SFR
  D:0081H         SYMBOL        SP
  C:0E67H         SYMBOL        STARTUP1
  N:0000H         SYMBOL        XBPSTACK
  N:0000H         SYMBOL        XBPSTACKTOP
  N:0000H         SYMBOL        XDATALEN
  N:0000H         SYMBOL        XDATASTART
  C:0000H         LINE#         126
  C:0E67H         LINE#         133
  C:0E69H         LINE#         134
  C:0E6AH         LINE#         135
  C:0E6BH         LINE#         136
  C:0E6DH         LINE#         185
  C:0E70H         LINE#         196
  -------         ENDMOD        ?C_STARTUP
BL51 BANKED LINKER/LOCATER V6.22                                                      05/24/2025  21:35:41  PAGE 6



  -------         MODULE        ?C?IMUL
  C:0D38H         PUBLIC        ?C?IMUL
  -------         ENDMOD        ?C?IMUL

  -------         MODULE        ?C?LMUL
  C:0D4AH         PUBLIC        ?C?LMUL
  -------         ENDMOD        ?C?LMUL

  -------         MODULE        ?C?SLDIV
  C:0FD0H         PUBLIC        ?C?SLDIV
  -------         ENDMOD        ?C?SLDIV

  -------         MODULE        ?C?ULDIV
  C:0DD5H         PUBLIC        ?C?ULDIV
  -------         ENDMOD        ?C?ULDIV

******************************************************************************
* RESTRICTED VERSION WITH 0800H BYTE CODE SIZE LIMIT; USED: 0626H BYTE (76%) *
******************************************************************************

Program Size: data=9.0 xdata=78 code=2074
LINK/LOCATE RUN COMPLETE.  0 WARNING(S),  0 ERROR(S)
