C51 COMPILER V9.56.0.0   BUTTERFLY                                                         05/24/2025 21:35:41 PAGE 1   


C51 COMPILER V9.56.0.0, COMPILATION OF MODULE BUTTERFLY
OBJECT MODULE PLACED IN butterfly.OBJ
COMPILER INVOKED BY: D:\Keil_v5\C51\BIN\C51.EXE butterfly.c LARGE OPTIMIZE(8,SPEED) BROWSE DEBUG OBJECTEXTEND PRINT(.\Li
                    -stings\butterfly.lst) TABS(2)

line level    source

   1          /*
   2          *作者：Klaoye
   3          *LICENSE:MIT
   4          */
   5          
   6          
   7          #include    "reg52.h"
   8          //时钟频率
   9          #define     MAIN_Fosc       120000L   
  10          
  11          typedef     unsigned char   u8;
  12          typedef     unsigned int    u16;
  13          typedef     unsigned long   u32;
  14          
  15          sbit p23=P0^1;//接蜂鸣器引脚
  16          
  17          //音符频率
  18          const u16 note[3][8]=
  19          {
  20            {0,262,294,330,349,392,440,494},
  21            {0,523,578,659,698,784,880,988},
  22            {0,1046,1175,1318,1397,1568,1760,1976}
  23          };
  24          
  25          //节奏时长
  26          u16 bpm184[]={0,1304,652,326,162,81};
  27          const u16 bpm75[] ={0,3200,1600,800,400,200,100};
  28          
  29          void buzzer(u16 f,u16 time_ms);  //蜂鸣器发声（频率，时间毫秒）
  30          void play();
  31          
  32          u16 BT(u8 bpm,u8 clock,u8 fraction);
  33          
  34          /******************** ??? **************************/
  35          void main(void)
  36          {
  37   1            play();
  38   1      }
  39          
  40          void play()
  41          {
  42   1      //梁祝选段
  43   1         buzzer(note[1][5],bpm75[4]);
  44   1         buzzer(note[1][3],bpm75[4]);
  45   1         buzzer(note[1][2],bpm75[4]);
  46   1        
  47   1         buzzer(note[1][1],bpm75[2]+bpm75[5]);
  48   1         buzzer(note[1][2],bpm75[4]);
  49   1         buzzer(note[0][7],bpm75[4]);
  50   1         buzzer(note[0][6],bpm75[4]);
  51   1        
  52   1         buzzer(note[0][5],bpm75[2]+bpm75[5]);
  53   1         buzzer(note[1][7],bpm75[4]);
  54   1         buzzer(note[1][6],bpm75[4]);
C51 COMPILER V9.56.0.0   BUTTERFLY                                                         05/24/2025 21:35:41 PAGE 2   

  55   1         buzzer(note[1][7],bpm75[4]);
  56   1        
  57   1         buzzer(note[1][5],bpm75[4]+bpm75[6]);
  58   1         buzzer(note[0][6],bpm75[5]);
  59   1         buzzer(note[1][4],bpm75[4]);
  60   1         buzzer(note[1][3],bpm75[4]);
  61   1         buzzer(note[1][2],bpm75[5]);
  62   1         buzzer(note[1][3],bpm75[5]);
  63   1         buzzer(note[1][4],bpm75[5]);
  64   1         buzzer(note[1][3],bpm75[5]);
  65   1         buzzer(note[1][5],bpm75[4]+bpm75[6]);
  66   1         buzzer(note[1][3],bpm75[5]);
  67   1         
  68   1         buzzer(note[1][2],bpm75[5]);
  69   1         buzzer(note[1][3],bpm75[5]);
  70   1         buzzer(note[1][5],bpm75[5]);
  71   1         buzzer(note[1][2],bpm75[5]);
  72   1         buzzer(note[1][3],bpm75[5]);
  73   1         buzzer(note[1][4],bpm75[5]);
  74   1         buzzer(note[1][3],bpm75[5]);
  75   1         buzzer(note[1][2],bpm75[5]);
  76   1         buzzer(note[1][1],bpm75[4]+bpm75[6]);
  77   1         buzzer(note[1][5],bpm75[4]);
  78   1         
  79   1         buzzer(note[0][7],bpm75[4]);
  80   1         buzzer(note[1][2],bpm75[4]);
  81   1         buzzer(note[0][6],bpm75[4]);
  82   1         buzzer(note[1][1],bpm75[4]);
  83   1         buzzer(note[0][5],bpm75[3]+bpm75[6]);
  84   1         buzzer(note[0][6],bpm75[5]);
  85   1         buzzer(note[1][1],bpm75[5]);
  86   1         
  87   1         buzzer(note[0][5],bpm75[1]);
  88   1         
  89   1         buzzer(note[0][3],bpm75[3]);
  90   1         buzzer(note[0][5],bpm75[4]+bpm75[5]);
  91   1         buzzer(note[0][6],bpm75[5]);
  92   1         buzzer(note[1][1],bpm75[4]+bpm75[5]);
  93   1         buzzer(note[1][2],bpm75[5]);
  94   1         buzzer(note[0][6],bpm75[5]);
  95   1         buzzer(note[1][1],bpm75[5]);
  96   1         buzzer(note[0][5],bpm75[4]);
  97   1         
  98   1         buzzer(note[1][5],bpm75[4]+bpm75[4]);
  99   1         buzzer(note[2][1],bpm75[4]);
 100   1         buzzer(note[1][6],bpm75[5]);
 101   1         buzzer(note[1][5],bpm75[5]);
 102   1         buzzer(note[1][3],bpm75[5]);
 103   1         buzzer(note[1][5],bpm75[5]);
 104   1         buzzer(note[1][2],bpm75[2]);
 105   1         
 106   1         buzzer(note[1][2],bpm75[4]);
 107   1         buzzer(note[1][2],bpm75[5]);
 108   1         buzzer(note[1][3],bpm75[5]);
 109   1         buzzer(note[0][7],bpm75[4]);
 110   1         buzzer(note[0][6],bpm75[4]);
 111   1         buzzer(note[0][5],bpm75[4]+bpm75[5]);
 112   1         buzzer(note[0][6],bpm75[5]);
 113   1         buzzer(note[1][1],bpm75[4]);
 114   1         buzzer(note[1][2],bpm75[4]);
 115   1         
 116   1         buzzer(note[0][3],bpm75[4]);
C51 COMPILER V9.56.0.0   BUTTERFLY                                                         05/24/2025 21:35:41 PAGE 3   

 117   1         buzzer(note[1][1],bpm75[4]);
 118   1         buzzer(note[0][6],bpm75[5]);
 119   1         buzzer(note[0][5],bpm75[5]);
 120   1         buzzer(note[0][6],bpm75[5]);
 121   1         buzzer(note[1][1],bpm75[5]);
 122   1         buzzer(note[0][5],bpm75[2]);
 123   1         
 124   1         buzzer(note[1][3],bpm75[4]+bpm75[5]);
 125   1         buzzer(note[1][5],bpm75[5]);
 126   1         buzzer(note[0][7],bpm75[4]);
 127   1         buzzer(note[1][2],bpm75[4]);
 128   1         buzzer(note[0][6],bpm75[5]);
 129   1         buzzer(note[1][1],bpm75[5]);
 130   1         buzzer(note[0][5],bpm75[4]);
 131   1         buzzer(note[0][0],bpm75[3]);
 132   1         
 133   1         buzzer(note[0][3],bpm75[5]);
 134   1         buzzer(note[0][5],bpm75[5]);
 135   1         buzzer(note[0][3],bpm75[4]);
 136   1         buzzer(note[0][5],bpm75[5]);
 137   1         buzzer(note[0][6],bpm75[5]);
 138   1         buzzer(note[0][7],bpm75[5]);
 139   1         buzzer(note[1][2],bpm75[5]);
 140   1         buzzer(note[0][6],bpm75[3]+bpm75[4]);
 141   1         buzzer(note[0][5],bpm75[5]);
 142   1         buzzer(note[0][6],bpm75[5]);
 143   1         
 144   1         
 145   1         buzzer(note[1][1],bpm75[4]);
 146   1         buzzer(note[1][2],bpm75[5]);
 147   1         buzzer(note[1][5],bpm75[4]);
 148   1         buzzer(note[1][3],bpm75[4]);
 149   1         buzzer(note[1][2],bpm75[4]);
 150   1         buzzer(note[1][3],bpm75[5]);
 151   1         buzzer(note[1][2],bpm75[5]);
 152   1         buzzer(note[1][1],bpm75[4]);
 153   1         buzzer(note[0][6],bpm75[5]);
 154   1         buzzer(note[0][5],bpm75[5]);
 155   1         
 156   1         buzzer(note[0][3],bpm75[3]);
 157   1         buzzer(note[1][1],bpm75[3]);
 158   1         buzzer(note[0][6],bpm75[5]);
 159   1         buzzer(note[1][1],bpm75[5]);
 160   1         buzzer(note[0][6],bpm75[5]);
 161   1         buzzer(note[0][5],bpm75[5]);
 162   1         buzzer(note[0][3],bpm75[5]);
 163   1         buzzer(note[0][5],bpm75[5]);
 164   1         buzzer(note[0][6],bpm75[5]);
 165   1         buzzer(note[1][1],bpm75[5]);
 166   1         
 167   1         buzzer(note[0][5],bpm75[3]+bpm75[4]);
 168   1         buzzer(note[1][3],bpm75[5]);
 169   1         buzzer(note[1][5],bpm75[5]);
 170   1         buzzer(note[1][2],bpm75[5]);
 171   1         buzzer(note[1][3],bpm75[5]);
 172   1         buzzer(note[1][2],bpm75[5]);
 173   1         buzzer(note[1][1],bpm75[5]);
 174   1         buzzer(note[0][7],bpm75[4]);
 175   1         buzzer(note[0][6],bpm75[4]);
 176   1         
 177   1         buzzer(196,bpm75[1]);
 178   1      }
C51 COMPILER V9.56.0.0   BUTTERFLY                                                         05/24/2025 21:35:41 PAGE 4   

 179          
 180          void buzzer(u16 f,u16 time_ms)//发声，f音调，time_ms维持时间Voice, f tone, time_ Ms duration
 181          {
 182   1        u16 time = (MAIN_Fosc / 1200)*time_ms;
 183   1        u16 C= MAIN_Fosc/(12*f);
 184   1        u16 x=0;
 185   1        for(;time>0;time--)
 186   1        {
 187   2          if(x>C){
 188   3            p23=0;
 189   3            x=0;
 190   3          }
 191   2          else
 192   2          {
 193   3            x++;
 194   3            p23=1;
 195   3          }
 196   2        }
 197   1        p23=1;
 198   1      }


MODULE INFORMATION:   STATIC OVERLAYABLE
   CODE SIZE        =   1475    ----
   CONSTANT SIZE    =   ----    ----
   XDATA SIZE       =     74       4
   PDATA SIZE       =   ----    ----
   DATA SIZE        =   ----    ----
   IDATA SIZE       =   ----    ----
   BIT SIZE         =   ----    ----
END OF MODULE INFORMATION.


C51 COMPILATION COMPLETE.  0 WARNING(S),  0 ERROR(S)
